{
  "_format": "hh-sol-artifact-1",
  "contractName": "SushiBar",
  "sourceName": "contracts/Assignment.sol",
  "abi": [
    {
      "inputs": [
        {
          "internalType": "address",
          "name": "_sushi",
          "type": "address"
        }
      ],
      "stateMutability": "nonpayable",
      "type": "constructor"
    },
    {
      "anonymous": false,
      "inputs": [
        {
          "indexed": true,
          "internalType": "address",
          "name": "owner",
          "type": "address"
        },
        {
          "indexed": true,
          "internalType": "address",
          "name": "spender",
          "type": "address"
        },
        {
          "indexed": false,
          "internalType": "uint256",
          "name": "value",
          "type": "uint256"
        }
      ],
      "name": "Approval",
      "type": "event"
    },
    {
      "anonymous": false,
      "inputs": [
        {
          "indexed": true,
          "internalType": "address",
          "name": "from",
          "type": "address"
        },
        {
          "indexed": true,
          "internalType": "address",
          "name": "to",
          "type": "address"
        },
        {
          "indexed": false,
          "internalType": "uint256",
          "name": "value",
          "type": "uint256"
        }
      ],
      "name": "Transfer",
      "type": "event"
    },
    {
      "inputs": [
        {
          "internalType": "address",
          "name": "owner",
          "type": "address"
        },
        {
          "internalType": "address",
          "name": "spender",
          "type": "address"
        }
      ],
      "name": "allowance",
      "outputs": [
        {
          "internalType": "uint256",
          "name": "",
          "type": "uint256"
        }
      ],
      "stateMutability": "view",
      "type": "function"
    },
    {
      "inputs": [
        {
          "internalType": "address",
          "name": "spender",
          "type": "address"
        },
        {
          "internalType": "uint256",
          "name": "amount",
          "type": "uint256"
        }
      ],
      "name": "approve",
      "outputs": [
        {
          "internalType": "bool",
          "name": "",
          "type": "bool"
        }
      ],
      "stateMutability": "nonpayable",
      "type": "function"
    },
    {
      "inputs": [
        {
          "internalType": "address",
          "name": "account",
          "type": "address"
        }
      ],
      "name": "balanceOf",
      "outputs": [
        {
          "internalType": "uint256",
          "name": "",
          "type": "uint256"
        }
      ],
      "stateMutability": "view",
      "type": "function"
    },
    {
      "inputs": [],
      "name": "decimals",
      "outputs": [
        {
          "internalType": "uint8",
          "name": "",
          "type": "uint8"
        }
      ],
      "stateMutability": "view",
      "type": "function"
    },
    {
      "inputs": [
        {
          "internalType": "address",
          "name": "spender",
          "type": "address"
        },
        {
          "internalType": "uint256",
          "name": "subtractedValue",
          "type": "uint256"
        }
      ],
      "name": "decreaseAllowance",
      "outputs": [
        {
          "internalType": "bool",
          "name": "",
          "type": "bool"
        }
      ],
      "stateMutability": "nonpayable",
      "type": "function"
    },
    {
      "inputs": [
        {
          "internalType": "uint256",
          "name": "_amount",
          "type": "uint256"
        }
      ],
      "name": "enter",
      "outputs": [],
      "stateMutability": "nonpayable",
      "type": "function"
    },
    {
      "inputs": [
        {
          "internalType": "address",
          "name": "spender",
          "type": "address"
        },
        {
          "internalType": "uint256",
          "name": "addedValue",
          "type": "uint256"
        }
      ],
      "name": "increaseAllowance",
      "outputs": [
        {
          "internalType": "bool",
          "name": "",
          "type": "bool"
        }
      ],
      "stateMutability": "nonpayable",
      "type": "function"
    },
    {
      "inputs": [
        {
          "internalType": "uint256",
          "name": "_share",
          "type": "uint256"
        }
      ],
      "name": "leave",
      "outputs": [],
      "stateMutability": "nonpayable",
      "type": "function"
    },
    {
      "inputs": [],
      "name": "name",
      "outputs": [
        {
          "internalType": "string",
          "name": "",
          "type": "string"
        }
      ],
      "stateMutability": "view",
      "type": "function"
    },
    {
      "inputs": [],
      "name": "sushi",
      "outputs": [
        {
          "internalType": "contract IERC20",
          "name": "",
          "type": "address"
        }
      ],
      "stateMutability": "view",
      "type": "function"
    },
    {
      "inputs": [],
      "name": "symbol",
      "outputs": [
        {
          "internalType": "string",
          "name": "",
          "type": "string"
        }
      ],
      "stateMutability": "view",
      "type": "function"
    },
    {
      "inputs": [],
      "name": "totalSupply",
      "outputs": [
        {
          "internalType": "uint256",
          "name": "",
          "type": "uint256"
        }
      ],
      "stateMutability": "view",
      "type": "function"
    },
    {
      "inputs": [
        {
          "internalType": "address",
          "name": "to",
          "type": "address"
        },
        {
          "internalType": "uint256",
          "name": "amount",
          "type": "uint256"
        }
      ],
      "name": "transfer",
      "outputs": [
        {
          "internalType": "bool",
          "name": "",
          "type": "bool"
        }
      ],
      "stateMutability": "nonpayable",
      "type": "function"
    },
    {
      "inputs": [
        {
          "internalType": "address",
          "name": "from",
          "type": "address"
        },
        {
          "internalType": "address",
          "name": "to",
          "type": "address"
        },
        {
          "internalType": "uint256",
          "name": "amount",
          "type": "uint256"
        }
      ],
      "name": "transferFrom",
      "outputs": [
        {
          "internalType": "bool",
          "name": "",
          "type": "bool"
        }
      ],
      "stateMutability": "nonpayable",
      "type": "function"
    }
  ],
  "bytecode": "0x60806040523480156200001157600080fd5b50604051620027c5380380620027c5833981810160405281019062000037919062000239565b6040518060400160405280600881526020017f53757368694261720000000000000000000000000000000000000000000000008152506040518060400160405280600681526020017f78535553484900000000000000000000000000000000000000000000000000008152508160039080519060200190620000bb9291906200011f565b508060049080519060200190620000d49291906200011f565b50505080600560006101000a81548173ffffffffffffffffffffffffffffffffffffffff021916908373ffffffffffffffffffffffffffffffffffffffff16021790555050620002d0565b8280546200012d906200029a565b90600052602060002090601f0160209004810192826200015157600085556200019d565b82601f106200016c57805160ff19168380011785556200019d565b828001600101855582156200019d579182015b828111156200019c5782518255916020019190600101906200017f565b5b509050620001ac9190620001b0565b5090565b5b80821115620001cb576000816000905550600101620001b1565b5090565b600080fd5b600073ffffffffffffffffffffffffffffffffffffffff82169050919050565b60006200020182620001d4565b9050919050565b6200021381620001f4565b81146200021f57600080fd5b50565b600081519050620002338162000208565b92915050565b600060208284031215620002525762000251620001cf565b5b6000620002628482850162000222565b91505092915050565b7f4e487b7100000000000000000000000000000000000000000000000000000000600052602260045260246000fd5b60006002820490506001821680620002b357607f821691505b60208210811415620002ca57620002c96200026b565b5b50919050565b6124e580620002e06000396000f3fe608060405234801561001057600080fd5b50600436106100ea5760003560e01c806367dfd4c91161008c578063a457c2d711610066578063a457c2d714610261578063a59f3e0c14610291578063a9059cbb146102ad578063dd62ed3e146102dd576100ea565b806367dfd4c9146101f757806370a082311461021357806395d89b4114610243576100ea565b806318160ddd116100c857806318160ddd1461015b57806323b872dd14610179578063313ce567146101a957806339509351146101c7576100ea565b806306fdde03146100ef578063095ea7b31461010d5780630a0879031461013d575b600080fd5b6100f761030d565b604051610104919061187d565b60405180910390f35b61012760048036038101906101229190611938565b61039f565b6040516101349190611993565b60405180910390f35b6101456103c2565b6040516101529190611a0d565b60405180910390f35b6101636103e8565b6040516101709190611a37565b60405180910390f35b610193600480360381019061018e9190611a52565b6103f2565b6040516101a09190611993565b60405180910390f35b6101b1610421565b6040516101be9190611ac1565b60405180910390f35b6101e160048036038101906101dc9190611938565b61042a565b6040516101ee9190611993565b60405180910390f35b610211600480360381019061020c9190611adc565b610461565b005b61022d60048036038101906102289190611b09565b610bac565b60405161023a9190611a37565b60405180910390f35b61024b610bf4565b604051610258919061187d565b60405180910390f35b61027b60048036038101906102769190611938565b610c86565b6040516102889190611993565b60405180910390f35b6102ab60048036038101906102a69190611adc565b610cfd565b005b6102c760048036038101906102c29190611938565b610eed565b6040516102d49190611993565b60405180910390f35b6102f760048036038101906102f29190611b36565b610f10565b6040516103049190611a37565b60405180910390f35b60606003805461031c90611ba5565b80601f016020809104026020016040519081016040528092919081815260200182805461034890611ba5565b80156103955780601f1061036a57610100808354040283529160200191610395565b820191906000526020600020905b81548152906001019060200180831161037857829003601f168201915b5050505050905090565b6000806103aa610f97565b90506103b7818585610f9f565b600191505092915050565b600560009054906101000a900473ffffffffffffffffffffffffffffffffffffffff1681565b6000600254905090565b6000806103fd610f97565b905061040a85828561116a565b6104158585856111f6565b60019150509392505050565b60006012905090565b600080610435610f97565b90506104568185856104478589610f10565b6104519190611c06565b610f9f565b600191505092915050565b6000600660003373ffffffffffffffffffffffffffffffffffffffff1673ffffffffffffffffffffffffffffffffffffffff16815260200190815260200160002054116104e3576040517f08c379a00000000000000000000000000000000000000000000000000000000081526004016104da90611ca8565b60405180910390fd5b6202a300600660003373ffffffffffffffffffffffffffffffffffffffff1673ffffffffffffffffffffffffffffffffffffffff168152602001908152602001600020546105319190611c06565b421015610573576040517f08c379a000000000000000000000000000000000000000000000000000000000815260040161056a90611d14565b60405180910390fd5b600061057d6103e8565b9050600061064182610633600560009054906101000a900473ffffffffffffffffffffffffffffffffffffffff1673ffffffffffffffffffffffffffffffffffffffff166370a08231306040518263ffffffff1660e01b81526004016105e39190611d43565b602060405180830381865afa158015610600573d6000803e3d6000fd5b505050506040513d601f19601f820116820180604052508101906106249190611d73565b8661147790919063ffffffff16565b61148d90919063ffffffff16565b90506202a300600660003373ffffffffffffffffffffffffffffffffffffffff1673ffffffffffffffffffffffffffffffffffffffff168152602001908152602001600020546106919190611c06565b421180156106ec575062054600600660003373ffffffffffffffffffffffffffffffffffffffff1673ffffffffffffffffffffffffffffffffffffffff168152602001908152602001600020546106e89190611c06565b4211155b156107d557610718606461070a604b8461147790919063ffffffff16565b61148d90919063ffffffff16565b816107239190611da0565b905061072f33846114a3565b600560009054906101000a900473ffffffffffffffffffffffffffffffffffffffff1673ffffffffffffffffffffffffffffffffffffffff1663a9059cbb33836040518363ffffffff1660e01b815260040161078c929190611dd4565b6020604051808303816000875af11580156107ab573d6000803e3d6000fd5b505050506040513d601f19601f820116820180604052508101906107cf9190611e29565b50610ba7565b62054600600660003373ffffffffffffffffffffffffffffffffffffffff1673ffffffffffffffffffffffffffffffffffffffff168152602001908152602001600020546108239190611c06565b4211801561087e57506207e900600660003373ffffffffffffffffffffffffffffffffffffffff1673ffffffffffffffffffffffffffffffffffffffff1681526020019081526020016000205461087a9190611c06565b4211155b15610967576108aa606461089c60328461147790919063ffffffff16565b61148d90919063ffffffff16565b816108b59190611da0565b90506108c133846114a3565b600560009054906101000a900473ffffffffffffffffffffffffffffffffffffffff1673ffffffffffffffffffffffffffffffffffffffff1663a9059cbb33836040518363ffffffff1660e01b815260040161091e929190611dd4565b6020604051808303816000875af115801561093d573d6000803e3d6000fd5b505050506040513d601f19601f820116820180604052508101906109619190611e29565b50610ba6565b6207e900600660003373ffffffffffffffffffffffffffffffffffffffff1673ffffffffffffffffffffffffffffffffffffffff168152602001908152602001600020546109b59190611c06565b42118015610a105750620a8c00600660003373ffffffffffffffffffffffffffffffffffffffff1673ffffffffffffffffffffffffffffffffffffffff16815260200190815260200160002054610a0c9190611c06565b4211155b15610af957610a3c6064610a2e60198461147790919063ffffffff16565b61148d90919063ffffffff16565b81610a479190611da0565b9050610a5333846114a3565b600560009054906101000a900473ffffffffffffffffffffffffffffffffffffffff1673ffffffffffffffffffffffffffffffffffffffff1663a9059cbb33836040518363ffffffff1660e01b8152600401610ab0929190611dd4565b6020604051808303816000875af1158015610acf573d6000803e3d6000fd5b505050506040513d601f19601f82011682018060405250810190610af39190611e29565b50610ba5565b610b0333846114a3565b600560009054906101000a900473ffffffffffffffffffffffffffffffffffffffff1673ffffffffffffffffffffffffffffffffffffffff1663a9059cbb33836040518363ffffffff1660e01b8152600401610b60929190611dd4565b6020604051808303816000875af1158015610b7f573d6000803e3d6000fd5b505050506040513d601f19601f82011682018060405250810190610ba39190611e29565b505b5b5b505050565b60008060008373ffffffffffffffffffffffffffffffffffffffff1673ffffffffffffffffffffffffffffffffffffffff168152602001908152602001600020549050919050565b606060048054610c0390611ba5565b80601f0160208091040260200160405190810160405280929190818152602001828054610c2f90611ba5565b8015610c7c5780601f10610c5157610100808354040283529160200191610c7c565b820191906000526020600020905b815481529060010190602001808311610c5f57829003601f168201915b5050505050905090565b600080610c91610f97565b90506000610c9f8286610f10565b905083811015610ce4576040517f08c379a0000000000000000000000000000000000000000000000000000000008152600401610cdb90611ec8565b60405180910390fd5b610cf18286868403610f9f565b60019250505092915050565b6000600560009054906101000a900473ffffffffffffffffffffffffffffffffffffffff1673ffffffffffffffffffffffffffffffffffffffff166370a08231306040518263ffffffff1660e01b8152600401610d5a9190611d43565b602060405180830381865afa158015610d77573d6000803e3d6000fd5b505050506040513d601f19601f82011682018060405250810190610d9b9190611d73565b90506000610da76103e8565b90506000811480610db85750600082145b15610dcc57610dc7338461167a565b610e01565b6000610df383610de5848761147790919063ffffffff16565b61148d90919063ffffffff16565b9050610dff338261167a565b505b42600660003373ffffffffffffffffffffffffffffffffffffffff1673ffffffffffffffffffffffffffffffffffffffff16815260200190815260200160002081905550600560009054906101000a900473ffffffffffffffffffffffffffffffffffffffff1673ffffffffffffffffffffffffffffffffffffffff166323b872dd3330866040518463ffffffff1660e01b8152600401610ea493929190611ee8565b6020604051808303816000875af1158015610ec3573d6000803e3d6000fd5b505050506040513d601f19601f82011682018060405250810190610ee79190611e29565b50505050565b600080610ef8610f97565b9050610f058185856111f6565b600191505092915050565b6000600160008473ffffffffffffffffffffffffffffffffffffffff1673ffffffffffffffffffffffffffffffffffffffff16815260200190815260200160002060008373ffffffffffffffffffffffffffffffffffffffff1673ffffffffffffffffffffffffffffffffffffffff16815260200190815260200160002054905092915050565b600033905090565b600073ffffffffffffffffffffffffffffffffffffffff168373ffffffffffffffffffffffffffffffffffffffff16141561100f576040517f08c379a000000000000000000000000000000000000000000000000000000000815260040161100690611f91565b60405180910390fd5b600073ffffffffffffffffffffffffffffffffffffffff168273ffffffffffffffffffffffffffffffffffffffff16141561107f576040517f08c379a000000000000000000000000000000000000000000000000000000000815260040161107690612023565b60405180910390fd5b80600160008573ffffffffffffffffffffffffffffffffffffffff1673ffffffffffffffffffffffffffffffffffffffff16815260200190815260200160002060008473ffffffffffffffffffffffffffffffffffffffff1673ffffffffffffffffffffffffffffffffffffffff168152602001908152602001600020819055508173ffffffffffffffffffffffffffffffffffffffff168373ffffffffffffffffffffffffffffffffffffffff167f8c5be1e5ebec7d5bd14f71427d1e84f3dd0314c0f7b2291e5b200ac8c7c3b9258360405161115d9190611a37565b60405180910390a3505050565b60006111768484610f10565b90507fffffffffffffffffffffffffffffffffffffffffffffffffffffffffffffffff81146111f057818110156111e2576040517f08c379a00000000000000000000000000000000000000000000000000000000081526004016111d99061208f565b60405180910390fd5b6111ef8484848403610f9f565b5b50505050565b600073ffffffffffffffffffffffffffffffffffffffff168373ffffffffffffffffffffffffffffffffffffffff161415611266576040517f08c379a000000000000000000000000000000000000000000000000000000000815260040161125d90612121565b60405180910390fd5b600073ffffffffffffffffffffffffffffffffffffffff168273ffffffffffffffffffffffffffffffffffffffff1614156112d6576040517f08c379a00000000000000000000000000000000000000000000000000000000081526004016112cd906121b3565b60405180910390fd5b6112e18383836117da565b60008060008573ffffffffffffffffffffffffffffffffffffffff1673ffffffffffffffffffffffffffffffffffffffff16815260200190815260200160002054905081811015611367576040517f08c379a000000000000000000000000000000000000000000000000000000000815260040161135e90612245565b60405180910390fd5b8181036000808673ffffffffffffffffffffffffffffffffffffffff1673ffffffffffffffffffffffffffffffffffffffff16815260200190815260200160002081905550816000808573ffffffffffffffffffffffffffffffffffffffff1673ffffffffffffffffffffffffffffffffffffffff16815260200190815260200160002060008282546113fa9190611c06565b925050819055508273ffffffffffffffffffffffffffffffffffffffff168473ffffffffffffffffffffffffffffffffffffffff167fddf252ad1be2c89b69c2b068fc378daa952ba7f163c4a11628f55a4df523b3ef8460405161145e9190611a37565b60405180910390a36114718484846117df565b50505050565b600081836114859190612265565b905092915050565b6000818361149b91906122ee565b905092915050565b600073ffffffffffffffffffffffffffffffffffffffff168273ffffffffffffffffffffffffffffffffffffffff161415611513576040517f08c379a000000000000000000000000000000000000000000000000000000000815260040161150a90612391565b60405180910390fd5b61151f826000836117da565b60008060008473ffffffffffffffffffffffffffffffffffffffff1673ffffffffffffffffffffffffffffffffffffffff168152602001908152602001600020549050818110156115a5576040517f08c379a000000000000000000000000000000000000000000000000000000000815260040161159c90612423565b60405180910390fd5b8181036000808573ffffffffffffffffffffffffffffffffffffffff1673ffffffffffffffffffffffffffffffffffffffff1681526020019081526020016000208190555081600260008282546115fc9190611da0565b92505081905550600073ffffffffffffffffffffffffffffffffffffffff168373ffffffffffffffffffffffffffffffffffffffff167fddf252ad1be2c89b69c2b068fc378daa952ba7f163c4a11628f55a4df523b3ef846040516116619190611a37565b60405180910390a3611675836000846117df565b505050565b600073ffffffffffffffffffffffffffffffffffffffff168273ffffffffffffffffffffffffffffffffffffffff1614156116ea576040517f08c379a00000000000000000000000000000000000000000000000000000000081526004016116e19061248f565b60405180910390fd5b6116f6600083836117da565b80600260008282546117089190611c06565b92505081905550806000808473ffffffffffffffffffffffffffffffffffffffff1673ffffffffffffffffffffffffffffffffffffffff168152602001908152602001600020600082825461175d9190611c06565b925050819055508173ffffffffffffffffffffffffffffffffffffffff16600073ffffffffffffffffffffffffffffffffffffffff167fddf252ad1be2c89b69c2b068fc378daa952ba7f163c4a11628f55a4df523b3ef836040516117c29190611a37565b60405180910390a36117d6600083836117df565b5050565b505050565b505050565b600081519050919050565b600082825260208201905092915050565b60005b8381101561181e578082015181840152602081019050611803565b8381111561182d576000848401525b50505050565b6000601f19601f8301169050919050565b600061184f826117e4565b61185981856117ef565b9350611869818560208601611800565b61187281611833565b840191505092915050565b600060208201905081810360008301526118978184611844565b905092915050565b600080fd5b600073ffffffffffffffffffffffffffffffffffffffff82169050919050565b60006118cf826118a4565b9050919050565b6118df816118c4565b81146118ea57600080fd5b50565b6000813590506118fc816118d6565b92915050565b6000819050919050565b61191581611902565b811461192057600080fd5b50565b6000813590506119328161190c565b92915050565b6000806040838503121561194f5761194e61189f565b5b600061195d858286016118ed565b925050602061196e85828601611923565b9150509250929050565b60008115159050919050565b61198d81611978565b82525050565b60006020820190506119a86000830184611984565b92915050565b6000819050919050565b60006119d36119ce6119c9846118a4565b6119ae565b6118a4565b9050919050565b60006119e5826119b8565b9050919050565b60006119f7826119da565b9050919050565b611a07816119ec565b82525050565b6000602082019050611a2260008301846119fe565b92915050565b611a3181611902565b82525050565b6000602082019050611a4c6000830184611a28565b92915050565b600080600060608486031215611a6b57611a6a61189f565b5b6000611a79868287016118ed565b9350506020611a8a868287016118ed565b9250506040611a9b86828701611923565b9150509250925092565b600060ff82169050919050565b611abb81611aa5565b82525050565b6000602082019050611ad66000830184611ab2565b92915050565b600060208284031215611af257611af161189f565b5b6000611b0084828501611923565b91505092915050565b600060208284031215611b1f57611b1e61189f565b5b6000611b2d848285016118ed565b91505092915050565b60008060408385031215611b4d57611b4c61189f565b5b6000611b5b858286016118ed565b9250506020611b6c858286016118ed565b9150509250929050565b7f4e487b7100000000000000000000000000000000000000000000000000000000600052602260045260246000fd5b60006002820490506001821680611bbd57607f821691505b60208210811415611bd157611bd0611b76565b5b50919050565b7f4e487b7100000000000000000000000000000000000000000000000000000000600052601160045260246000fd5b6000611c1182611902565b9150611c1c83611902565b9250827fffffffffffffffffffffffffffffffffffffffffffffffffffffffffffffffff03821115611c5157611c50611bd7565b5b828201905092915050565b7f4e6f20616d6f756e74207374616b656400000000000000000000000000000000600082015250565b6000611c926010836117ef565b9150611c9d82611c5c565b602082019050919050565b60006020820190508181036000830152611cc181611c85565b9050919050565b7f43616e277420626520756e7374616b6564000000000000000000000000000000600082015250565b6000611cfe6011836117ef565b9150611d0982611cc8565b602082019050919050565b60006020820190508181036000830152611d2d81611cf1565b9050919050565b611d3d816118c4565b82525050565b6000602082019050611d586000830184611d34565b92915050565b600081519050611d6d8161190c565b92915050565b600060208284031215611d8957611d8861189f565b5b6000611d9784828501611d5e565b91505092915050565b6000611dab82611902565b9150611db683611902565b925082821015611dc957611dc8611bd7565b5b828203905092915050565b6000604082019050611de96000830185611d34565b611df66020830184611a28565b9392505050565b611e0681611978565b8114611e1157600080fd5b50565b600081519050611e2381611dfd565b92915050565b600060208284031215611e3f57611e3e61189f565b5b6000611e4d84828501611e14565b91505092915050565b7f45524332303a2064656372656173656420616c6c6f77616e63652062656c6f7760008201527f207a65726f000000000000000000000000000000000000000000000000000000602082015250565b6000611eb26025836117ef565b9150611ebd82611e56565b604082019050919050565b60006020820190508181036000830152611ee181611ea5565b9050919050565b6000606082019050611efd6000830186611d34565b611f0a6020830185611d34565b611f176040830184611a28565b949350505050565b7f45524332303a20617070726f76652066726f6d20746865207a65726f2061646460008201527f7265737300000000000000000000000000000000000000000000000000000000602082015250565b6000611f7b6024836117ef565b9150611f8682611f1f565b604082019050919050565b60006020820190508181036000830152611faa81611f6e565b9050919050565b7f45524332303a20617070726f766520746f20746865207a65726f20616464726560008201527f7373000000000000000000000000000000000000000000000000000000000000602082015250565b600061200d6022836117ef565b915061201882611fb1565b604082019050919050565b6000602082019050818103600083015261203c81612000565b9050919050565b7f45524332303a20696e73756666696369656e7420616c6c6f77616e6365000000600082015250565b6000612079601d836117ef565b915061208482612043565b602082019050919050565b600060208201905081810360008301526120a88161206c565b9050919050565b7f45524332303a207472616e736665722066726f6d20746865207a65726f20616460008201527f6472657373000000000000000000000000000000000000000000000000000000602082015250565b600061210b6025836117ef565b9150612116826120af565b604082019050919050565b6000602082019050818103600083015261213a816120fe565b9050919050565b7f45524332303a207472616e7366657220746f20746865207a65726f206164647260008201527f6573730000000000000000000000000000000000000000000000000000000000602082015250565b600061219d6023836117ef565b91506121a882612141565b604082019050919050565b600060208201905081810360008301526121cc81612190565b9050919050565b7f45524332303a207472616e7366657220616d6f756e742065786365656473206260008201527f616c616e63650000000000000000000000000000000000000000000000000000602082015250565b600061222f6026836117ef565b915061223a826121d3565b604082019050919050565b6000602082019050818103600083015261225e81612222565b9050919050565b600061227082611902565b915061227b83611902565b9250817fffffffffffffffffffffffffffffffffffffffffffffffffffffffffffffffff04831182151516156122b4576122b3611bd7565b5b828202905092915050565b7f4e487b7100000000000000000000000000000000000000000000000000000000600052601260045260246000fd5b60006122f982611902565b915061230483611902565b925082612314576123136122bf565b5b828204905092915050565b7f45524332303a206275726e2066726f6d20746865207a65726f2061646472657360008201527f7300000000000000000000000000000000000000000000000000000000000000602082015250565b600061237b6021836117ef565b91506123868261231f565b604082019050919050565b600060208201905081810360008301526123aa8161236e565b9050919050565b7f45524332303a206275726e20616d6f756e7420657863656564732062616c616e60008201527f6365000000000000000000000000000000000000000000000000000000000000602082015250565b600061240d6022836117ef565b9150612418826123b1565b604082019050919050565b6000602082019050818103600083015261243c81612400565b9050919050565b7f45524332303a206d696e7420746f20746865207a65726f206164647265737300600082015250565b6000612479601f836117ef565b915061248482612443565b602082019050919050565b600060208201905081810360008301526124a88161246c565b905091905056fea26469706673582212207032833f5b084ff3fc0c04691a86be3dab5617ebbf9cae288fffba37b96cd93664736f6c634300080c0033",
  "linkReferences": {},
  "deployedLinkReferences": {}
}